:020000040800F2
:10000000002800202D1400083113000837130008C1
:100010003D130008431300084913000800000000C6
:100020000000000000000000000000004F13000866
:100030005B1300080000000067130008731300083A
:10004000751400087514000875140008751400086C
:10005000751400087514000875140008751400085C
:10006000751400087514000875140008751400084C
:10007000751400087514000875140008751400083C
:10008000751400087514000875140008751400082C
:10009000751400087514000875140008751400081C
:1000A000751400087514000875140008751400080C
:1000B0008113000875140008000000007514000882
:1000C000751400080000000000000000751400080E
:1000D00000000000751400087514000800000000FE
:1000E000751400087514000875140008000000005D
:1000F0000000000000000000000000000000000000
:0C01000000000000000000005FF808F1A3
:10010C0010B5054C237833B9044B13B10448AFF345
:10011C0000800123237010BD54000020000000005B
:10012C00A42A000808B5034B1BB103490348AFF3DD
:10013C00008008BD0000000058000020A42A000820
:10014C0080B500AF604B1B68604A1360604B1B6846
:10015C005D4A136001215F4801F072FC03461A46A8
:10016C005B4B1A605C4B1B685C4A13605C4B1B68F6
:10017C00594A13600221574801F062FC03461A46A3
:10018C00574B1A60514B1A684F4B1B689A4229D136
:10019C004D4B1A684E4B1B689A4223D1514B1A682F
:1001AC004B4B1B689A420ED0494B1B684D4A13604F
:1001BC00474B1B68002B15D14B4B01221A604B4B44
:1001CC00C8221A600EE0494B1B68013B474A13607A
:1001DC00464B1B68002B05DC424B01221A60434B3B
:1001EC00C8221A603D4B1A683B4B1B689A4229D1B6
:1001FC00394B1A683A4B1B689A4223D13C4B1A680C
:10020C00374B1B689A420ED0354B1B68384A13602B
:10021C00334B1B68002B15D1364B01221A60334B24
:10022C00C8221A600EE0314B1B68013B2F4A136049
:10023C002E4B1B68002B05DC2D4B01221A602B4B1F
:10024C00C8221A602C4B1B682C4A13602C4B1B6861
:10025C00294A136004211F4801F0F2FB03461A4699
:10026C00274B1A60254B1A68234B1B689A4229D1DD
:10027C00214B1A68224B1B689A4223D1214B1A68D6
:10028C001F4B1B689A420ED01D4B1B681D4A1360F6
:10029C001B4B1B68002B15D11B4B01221A60134BF7
:1002AC00C8221A600EE0114B1B68013B0F4A136009
:1002BC000E4B1B68002B05DC124B01221A600B4BFA
:1002CC00C8221A6000BF80BD04000020000000207E
:1002DC0008000020000C0140140000201000002039
:1002EC00180000200C00002074000020700000207A
:1002FC001C0000207800002024000020200000209A
:10030C00280000202C0000207C00002080B400AFCE
:10031C00064B1B68012B04D1044B00221A600123ED
:10032C0000E000231846BD4680BC704774000020D6
:10033C0080B400AF064B1B68012B04D1044B002288
:10034C001A60012300E000231846BD4680BC7047AC
:10035C007800002080B400AF064B1B68012B04D141
:10036C00044B00221A60012300E000231846BD460E
:10037C0080BC70477C00002080B500AFA14B1B688F
:10038C00012B00F0E281A04B1B68012B00F0DF81F8
:10039C009E4B1B68032B00F2F28001A252F823F053
:1003AC00BD0300086B0400082B050008CB040008F3
:1003BC0000224021964801F05AFB002280219448EB
:1003CC0001F055FB00224FF48071914801F04FFB76
:1003DC00002202218E4801F04AFB002204218C48A5
:1003EC0001F045FB00220821894801F040FB874BB6
:1003FC0001221A60874B1B68874A82FB03129211F9
:10040C00DB17D31A854A1360854B03221A60854B80
:10041C001B68814A82FB03129211DB17D31A824AA2
:10042C0013607E4B1B68804A12681146184600F018
:10043C00CBFD784B1B681946002000F0ABFF794BC5
:10044C001B681946012000F0A5FF4FF47A710220B9
:10045C0000F0A0FFFA21032000F09CFF78E10122BC
:10046C0040216B4801F003FB00228021684801F019
:10047C00FEFA00224FF48071654801F0F8FA6B4BDC
:10048C001B68012B7DD1614B03221A60654B1B68E5
:10049C00614A82FB03129211DB17D31A5F4A136075
:1004AC005E4B1B68604A12681146184600F08CFDC2
:1004BC005C4B1B681946002000F06CFF61E00022C9
:1004CC004021534801F0D3FA00228021504801F01A
:1004DC00CEFA01224FF480714D4801F0C8FA534B0B
:1004EC001B68012B4FD1494B02221A60504B1B68E1
:1004FC00494A82FB03129211DB17D31A474A136045
:10050C00464B1B68484A12681146184600F05CFDC1
:10051C00474B1B681946002000F03CFF33E00022DB
:10052C0040213B4801F0A3FA01228021384801F018
:10053C009EFA00224FF48071354801F098FA3B4B3B
:10054C001B68012B21D1314B01221A60314B1B68E6
:10055C00314A82FB03129211DB17D31A2F4A136014
:10056C002E4B1B68304A12681146184600F02CFDC1
:10057C00284B1B681946002000F00CFF05E000BF5B
:10058C0004E000BF02E000BF00E000BF244B1B688A
:10059C00032B4FD0032B00F3AB80012B02D0022B8B
:1005AC0077D0A5E001220221194801F060FA00225F
:1005BC000421174801F05BFA00220821144801F0CD
:1005CC0056FA1A4B5B68012B40F09480144B0322B3
:1005DC001A60144B1B68104A82FB03129211DB1732
:1005EC00D31A114A13600D4B1B680F4A126811463F
:1005FC00184600F0E9FC0B4B1B681946012000F073
:10060C00C9FE77E0940000209000002088000020B4
:10061C000008014038000020D34D621080000020FB
:10062C008C00002040000020840000201C010020D1
:10063C003C00002000220221464801F018FA00225A
:10064C000421444801F013FA01220821414801F029
:10065C000EFA414B5B68012B4ED1404B02221A60C3
:10066C003F4B1B683F4A82FB03129211DB17D31AD4
:10067C003D4A13603D4B1B683B4A126811461846B5
:10068C0000F0A2FC364B1B681946012000F082FEDC
:10069C0032E0002202212F4801F0E9F90122042165
:1006AC002C4801F0E4F9002208212A4801F0DFF976
:1006BC00294B5B68012B21D1284B01221A602C4B52
:1006CC001B68284A82FB03129211DB17D31A264AA5
:1006DC001360264B1B68244A12681146184600F01A
:1006EC0073FC234B1B681946012000F053FE05E0F8
:1006FC0000BF04E000BF02E000BF00E000BF164BEB
:10070C009B68012B16D14FF47A71022000F042FE47
:10071C00164B1B68013B154A1360134B1B68013BBE
:10072C00114A1360114B1B680F4A12681146184688
:10073C0000F04AFC084BDB68012B09D1FA2103209D
:10074C0000F028FE00F022FA02E000BF00E000BF3B
:10075C0080BD00BF000801401C0100208C0000205F
:10076C003C000020D34D621084000020800000204B
:10077C003800002080B500AF584B1B68012B00F0EF
:10078C00AB80574B1B68012B49D0FFF7E3FD0346A9
:10079C00012B44D1524B01221A60524B4FF0FF32C5
:1007AC001A60514B4FF0FF321A60504B01221A6005
:1007BC00002240214E4801F05AF9002202214C48F7
:1007CC0001F055F900228021494801F050F900222E
:1007DC000421474801F04BF900224FF48071444842
:1007EC0001F045F900220821414801F040F90122AD
:1007FC004FF480513E4801F03AF901224FF4005178
:10080C003B4801F034F901224FF48041384801F0A3
:10081C002EF901224FF40041354801F028F9334BF1
:10082C001B68012B02D0022B1ED03EE001224FF49C
:10083C0080712F4801F01BF9012202212C4801F094
:10084C0016F9002208212A4801F011F90022402152
:10085C00274801F00CF9FFF77DFD0346012B21D150
:10086C00224B02221A601DE001224021204801F097
:10087C00FEF8012208211E4801F0F9F800224FF47D
:10088C0080711B4801F0F3F800220221184801F096
:10089C00EEF8FFF75FFD0346012B05D1134B012248
:1008AC001A6001E000BF00E000BF0D4B1B68012B7C
:1008BC0013D1FFF72BFD0346012B0ED1084B002261
:1008CC001A60084B00221A60074B00221A60074B73
:1008DC004FF0FF321A6000E000BF80BD9000002096
:1008EC0094000020880000208C00002034000020A0
:1008FC000008014080B500AF9A4B1B68012B00F03B
:10090C002781FFF703FD0346012B2AD1002240214A
:10091C00954801F0ACF800228021934801F0A7F82B
:10092C0000224FF48071904801F0A1F800220221BE
:10093C008D4801F09CF8002204218B4801F097F8B7
:10094C0000220821884801F092F8884B01221A6095
:10095C000021002000F038FB854B1B680133844AD2
:10096C001360834B1B68042B00F2F48001A252F835
:10097C0023F000BF95090008FB0900085F0A000876
:10098C00C10A0008250B000800224021764801F01E
:10099C006EF800228021744801F069F800224FF4AF
:1009AC008071714801F063F8002202216E4801F059
:1009BC005EF8002204216C4801F059F8002208214D
:1009CC00694801F054F8FA21032000F0E3FC694B6C
:1009DC0000221A60684B00221A60684B00221A60D1
:1009EC000021002000F0F0FA614B01221A60FFF7A1
:1009FC009FFC0346012B18D15E4B1B6803F57A73E1
:100A0C005C4A13605B4B1B685D4A82FB03129211BC
:100A1C00DB17D01A574B1B68594A82FB03129211F1
:100A2C00DB17D31A194600F0CFFA564BDB68012BB3
:100A3C0040F0928000F0AAF840214B4801F02FF8CA
:100A4C000221494801F02BF8FA21032000F0A2FC06
:100A5C0082E0FFF76DFC0346012B18D1464B1B6857
:100A6C0003F57A73444A1360434B1B68444A82FB78
:100A7C0003129211DB17D01A3F4B1B68404A82FBC2
:100A8C0003129211DB17D31A194600F09DFA3D4B55
:100A9C00DB68012B62D100F079F88021324800F03C
:100AAC00FEFF0421304800F0FAFFFA21032000F089
:100ABC0071FC53E0FFF73CFC0346012B18D12F4B84
:100ACC001B6803F57A732D4A13602C4B1B682C4A58
:100ADC0082FB03129211DB17D01A284B1B68284A91
:100AEC0082FB03129211DB17D31A194600F06CFA31
:100AFC00244BDB68012B33D100F048F84FF48071A4
:100B0C00194800F0CCFF0821174800F0C8FFFA2163
:100B1C00032000F03FFC23E0164B1B68002B13D086
:100B2C00154B1A68154B1B681A44124B1B689A42DA
:100B3C000AD10F4B4FF0FF321A60134B00221A6090
:100B4C000A4B00221A600CE0094B00221A6008E0E4
:100B5C0000BF06E000BF04E000BF02E000BF00E001
:100B6C0000BF80BD940000200008014090000020D0
:100B7C0030000020380000203C0000204000002005
:100B8C00D34D62101C0100208800002080B500AFFE
:100B9C0001224FF48051324800F069FF01224FF4DA
:100BAC0000512F4800F063FF01224FF480412C4884
:100BBC0000F05DFF01224FF40041294800F057FF7F
:100BCC00284B1B68032B3BD801A252F823F000BF23
:100BDC00ED0B0008050C00081D0C0008350C000876
:100BEC0000224FF480511E4800F041FF1E4B1B6841
:100BFC00184600F03BF824E000224FF4005118484E
:100C0C0000F035FF184B5B68184600F02FF818E021
:100C1C0000224FF48041124800F029FF124B9B68D0
:100C2C00184600F023F80CE000224FF400410C4869
:100C3C0000F01DFF0C4BDB68184600F017F800E0C5
:100C4C0000BF084B1B680133064A1360054B1B6839
:100C5C00032B02DD034B00221A6000BF80BD00BFD6
:100C6C0000080140A80000209800002080B582B048
:100C7C0000AF78607B68092B00F29E8101A252F8CC
:100C8C0023F000BFB90C0008070D0008550D000833
:100C9C00A30D0008F10D00083F0E00088D0E000892
:100CAC00DB0E0008290F0008770F00080022102126
:100CBC00C44800F0DCFE00222021C24800F0D7FE20
:100CCC0000224021BF4800F0D2FE00228021BD4806
:100CDC0000F0CDFE00224FF48071BA4800F0C7FE40
:100CEC0000224FF40071B74800F0C1FE01224FF40E
:100CFC008061B44800F0BBFE5FE101221021B148D5
:100D0C0000F0B5FE00222021AE4800F0B0FE00221B
:100D1C004021AC4800F0ABFE01228021A94800F034
:100D2C00A6FE01224FF48071A64800F0A0FE01221D
:100D3C004FF40071A34800F09AFE01224FF4806139
:100D4C00A04800F094FE38E1002210219D4800F0EC
:100D5C008EFE002220219B4800F089FE01224021BA
:100D6C00984800F084FE00228021964800F07FFE17
:100D7C0000224FF48071934800F079FE01224FF469
:100D8C000071904800F073FE00224FF480618D4892
:100D9C0000F06DFE11E1002210218A4800F067FE80
:100DAC0000222021874800F062FE00224021854865
:100DBC0000F05DFE00228021824800F058FE0122E6
:100DCC004FF480717F4800F052FE01224FF4007105
:100DDC007C4800F04CFE00224FF48061794800F012
:100DEC0046FEEAE001221021764800F040FE002287
:100DFC002021744800F03BFE00224021714800F095
:100E0C0036FE012280216F4800F031FE01224FF4A2
:100E1C0080716C4800F02BFE00224FF40071694881
:100E2C0000F025FE00224FF48061664800F01FFEA2
:100E3C00C3E000221021634800F019FE012220219A
:100E4C00604800F014FE002240215E4800F00FFEC6
:100E5C00002280215B4800F00AFE01224FF48071D1
:100E6C00584800F004FE00224FF40071554800F081
:100E7C00FEFD00224FF48061524800F0F8FD9CE02A
:100E8C00002210214F4800F0F2FD012220214D4894
:100E9C0000F0EDFD002240214A4800F0E8FD002260
:100EAC008021484800F0E3FD00224FF48071454852
:100EBC0000F0DDFD00224FF40071424800F0D7FD38
:100ECC0000224FF480613F4800F0D1FD75E0002214
:100EDC0010213C4800F0CBFD00222021394800F0C5
:100EEC00C6FD00224021374800F0C1FD01228021BF
:100EFC00344800F0BCFD01224FF48071314800F001
:100F0C00B6FD01224FF400712E4800F0B0FD012215
:100F1C004FF480612B4800F0AAFD4EE00022102116
:100F2C00284800F0A4FD00222021264800F09FFD57
:100F3C0000224021234800F09AFD00228021214804
:100F4C0000F095FD00224FF480711E4800F08FFDDB
:100F5C0000224FF400711B4800F089FD00224FF471
:100F6C008061184800F083FD27E00022102115480D
:100F7C0000F07DFD00222021124800F078FD0022B7
:100F8C004021104800F073FD002280210D4800F034
:100F9C006EFD01224FF480710A4800F068FD0022BA
:100FAC004FF40071074800F062FD00224FF480619D
:100FBC00044800F05CFD00E000BF00BF0837BD46F0
:100FCC0080BD00BF000C014080B483B000AF7860DE
:100FDC0039607B68184A82FB03129210DB17D31A14
:100FEC00164A13607968144B83FB01239A10CB17B4
:100FFC00D21A13469B0013445B00CA1A0F4B5A605B
:10100C003B680D4A82FB03129210DB17D31A0B4A72
:10101C0093603968084B83FB01239A10CB17D21AC3
:10102C0013469B0013445B00CA1A044BDA6000BFE2
:10103C000C37BD4680BC704767666666980000201A
:10104C0080B500AF00F012FA00F010F800F096F83E
:10105C0000F048F8044801F067F9FFF78DF9FFF745
:10106C0089FBFFF747FCF8E7AC00002080B590B097
:10107C0000AF07F1180328220021184601F004FDE7
:10108C003B1D00221A605A609A60DA601A610223D2
:10109C00BB610123BB621023FB6200237B6307F15E
:1010AC001803184600F014FD0346002B01D000F085
:1010BC00DDF80F237B600023BB600023FB60002363
:1010CC003B6100237B613B1D0021184600F080FF33
:1010DC000346002B01D000F0C9F800BF4037BD46D5
:1010EC0080BD000080B586B000AF07F10803002278
:1010FC001A605A609A60DA603B4600221A605A60A5
:10110C001D4B4FF080421A601B4B41F63F725A60E8
:10111C00194B00229A60184B0922DA60164B0022F8
:10112C001A61154B00229A61134801F0ADF8034681
:10113C00002B01D000F09AF84FF48053BB6007F1FC
:10114C00080319460C4801F02BFA0346002B01D07A
:10115C0000F08CF800233B6000237B603B46194673
:10116C00054801F003FC0346002B01D000F07EF88B
:10117C0000BF1837BD4680BDAC00002080B586B0DE
:10118C0000AF07F1080300221A605A609A60DA6017
:10119C00284B9B69274A43F004039361254B9B69B9
:1011AC0003F004037B607B68224B9B69214A43F06C
:1011BC00080393611F4B9B6903F008033B603B687A
:1011CC0000224FF2EE111C4800F051FC00224FF4AB
:1011DC00FE611A4800F04BFC4FF2EE13BB6001238A
:1011EC00FB6000233B6102237B6107F10803194676
:1011FC00114800F0ABFA0723BB600023FB6000230F
:10120C003B6107F1080319460C4800F09FFA4FF4B4
:10121C00FE63BB600123FB6000233B6102237B6107
:10122C0007F108031946054800F090FA00BF18377B
:10123C00BD4680BD0010024000080140000C01407A
:10124C0080B582B000AF7860FEF77AFF002000F026
:10125C00BFF8012000F0BCF8022000F0B9F8032020
:10126C0000F0B6F800BF0837BD4680BD80B400AFB3
:10127C0072B600BFFEE7000080B485B000AF154B1E
:10128C009B69144A43F001039361124B9B6903F071
:10129C000103BB60BB680F4BDB690E4A43F0805304
:1012AC00D3610C4BDB6903F080537B607B680A4B8A
:1012BC005B68FB60FB6823F0E063FB60FB6843F05A
:1012CC008063FB60044AFB68536000BF1437BD4663
:1012DC0080BC7047001002400000014080B584B013
:1012EC0000AF78607B681B68B3F1804F13D10C4B57
:1012FC00DB690B4A43F00103D361094BDB6903F053
:10130C000103FB60FB68002200211C2000F0E7F9C0
:10131C001C2000F000FA00BF1037BD4680BD00BF96
:10132C000010024080B400AFFEE780B400AFFEE7CF
:10133C0080B400AFFEE780B400AFFEE780B400AF2E
:10134C00FEE780B400AF00BFBD4680BC704780B4E0
:10135C0000AF00BFBD4680BC704780B400AF00BF7B
:10136C00BD4680BC704780B500AF00F0C5F800BF2B
:10137C0080BD000080B500AF024801F021F800BF2D
:10138C0080BD00BFAC00002080B400AF00BFBD46E4
:10139C0080BC704780B483B000AF78603960094B73
:1013AC001B683A6892FBF3F207497B6841F82320EB
:1013BC00064A7B68002142F8231000BF0C37BD465B
:1013CC0080BC704748000020F40000201C01002065
:1013DC0080B483B000AF78600F4A7B6852F823303A
:1013EC00002B13DD0C4A7B6852F823305A1E0A4935
:1013FC007B6841F82320084A7B6852F82330002B85
:10140C0004DC064A7B68012142F8231000BF0C372C
:10141C00BD4680BC704700BFF40000201C010020BA
:10142C00FFF7B2FF0B480C490C4A002302E0D458DA
:10143C00C4500433C4188C42F9D3094A094C002314
:10144C0001E013600432A242FBD301F0F9FAFFF77A
:10145C00F7FD70470000002054000020E82A000827
:10146C005400002048010020FEE7000080B500AFCA
:10147C00084B1B68074A43F010031360032000F06D
:10148C0023F90F2000F008F8FFF7F6FE00231846AA
:10149C0080BD00BF0020024080B582B000AF7860F4
:1014AC00124B1A68124B1B7819464FF47A73B3FB24
:1014BC00F1F3B2FBF3F3184600F03BF90346002BB3
:1014CC0001D001230EE07B680F2B0AD8002279682B
:1014DC004FF0FF3000F003F9064A7B6813600023DD
:1014EC0000E0012318460837BD4680BD44000020AB
:1014FC00500000204C00002080B400AF054B1B783E
:10150C001A46054B1B681344034A136000BFBD46C3
:10151C0080BC7047500000204401002080B400AF14
:10152C00024B1B681846BD4680BC70474401002026
:10153C0080B485B000AF78607B6803F00703FB6074
:10154C000C4BDB68BB60BA684FF6FF031340BB6003
:10155C00FB681A02BB68134343F0BF6343F40033C8
:10156C00BB60044ABB68D36000BF1437BD4680BC67
:10157C00704700BF00ED00E080B400AF044BDB68A7
:10158C001B0A03F007031846BD4680BC704700BF1A
:10159C0000ED00E080B483B000AF0346FB7197F917
:1015AC000730002B0BDBFB7903F01F02064997F980
:1015BC0007305B09012000FA02F241F8232000BF3A
:1015CC000C37BD4680BC704700E100E080B483B0AE
:1015DC0000AF03463960FB7197F90730002B0ADB2B
:1015EC003B68DAB20C4997F907301201D2B20B44BE
:1015FC0083F800230AE03B68DAB20849FB7903F070
:10160C000F03043B1201D2B20B441A7600BF0C3705
:10161C00BD4680BC704700BF00E100E000ED00E07B
:10162C0080B489B000AFF860B9607A60FB6803F0F1
:10163C000703FB61FB69C3F10703042B28BF0423D9
:10164C00BB61FB690433062B02D9FB69033B00E049
:10165C0000237B614FF0FF32BB6902FA03F3DA43DC
:10166C00BB681A407B699A404FF0FF317B6901FAE5
:10167C0003F3D9437B680B40134318462437BD460C
:10168C0080BC704780B582B000AF78607B68013B4E
:10169C00B3F1807F01D301230FE00A4A7B68013B41
:1016AC0053600F214FF0FF30FFF790FF054B0022E6
:1016BC009A60044B07221A60002318460837BD466F
:1016CC0080BD00BF10E000E080B582B000AF786054
:1016DC007868FFF72DFF00BF0837BD4680BD80B589
:1016EC0086B000AF0346B9607A60FB7300237B6160
:1016FC00FFF742FF78617A68B9687869FFF790FF65
:10170C00024697F90F3011461846FFF75FFF00BFEE
:10171C001837BD4680BD80B582B000AF0346FB7163
:10172C0097F907301846FFF735FF00BF0837BD465D
:10173C0080BD80B582B000AF78607868FFF7A2FFFB
:10174C00034618460837BD4680BD000080B48BB0F8
:10175C0000AF7860396000237B6200233B6248E174
:10176C0001227B6A02FA03F3FB613B681B68FA698E
:10177C001340BB61BA69FB699A4240F037813B6800
:10178C005B68A34A93425ED0A14A934275D8A14AA2
:10179C00934258D09F4A93426FD89F4A934252D05B
:1017AC009D4A934269D89D4A93424CD09B4A93429E
:1017BC0063D89B4A934246D0994A93425DD8122BE8
:1017CC002AD8122B59D801A252F823F0531800082A
:1017DC002D1800083F180008811800088718000809
:1017EC008718000887180008871800088718000851
:1017FC008718000887180008871800088718000841
:10180C008718000887180008871800088718000830
:10181C003518000849180008824A934213D02CE06E
:10182C003B68DB683B6229E03B68DB6804333B6266
:10183C0024E03B68DB6808333B621FE03B68DB68F5
:10184C000C333B621AE03B689B68002B02D10423EB
:10185C003B6213E03B689B68012B05D108233B627C
:10186C007B68FA691A6109E008233B627B68FA69B4
:10187C005A6103E000233B6200E000BFBB69FF2B11
:10188C0001D87B6801E07B6804337B61BB69FF2B6B
:10189C0002D87B6A9B0002E07B6A083B9B003B61A1
:1018AC007B691A680F213B6901FA03F3DB431A4089
:1018BC00396A3B6901FA03F31A437B691A603B6886
:1018CC005B6803F08053002B00F09080564B9B69B3
:1018DC00554A43F001039361534B9B6903F0010399
:1018EC00BB60BB68514A7B6A9B08023352F82330B9
:1018FC00FB607B6A03F003039B000F2202FA03F3E5
:10190C00DB43FA681340FB607B68494A93420DD075
:10191C007B68484A934207D07B68474A934201D17F
:10192C00022304E0032302E0012300E000237A6A8F
:10193C0002F0030292009340FA681343FB603B49A8
:10194C007B6A9B080233FA6841F823203B685B688A
:10195C0003F48013002B06D0384B9A683749BB69C7
:10196C0013438B6006E0354B9A68BB69DB43334904
:10197C0013408B603B685B6803F40013002B06D0AC
:10198C002E4BDA682D49BB691343CB6006E02B4B19
:10199C00DA68BB69DB4329491340CB603B685B6861
:1019AC0003F40033002B06D0244B5A682349BB693F
:1019BC0013434B6006E0214B5A68BB69DB431F495C
:1019CC0013404B603B685B6803F48033002B06D0FC
:1019DC001A4B1A681949BB6913430B6006E0174B85
:1019EC001A68BB69DB43154913400B607B6A0133F2
:1019FC007B623B681A687B6A22FA03F3002B7FF444
:101A0C00AFAE00BF00BF2C37BD4680BC704700BFD7
:101A1C0000003210000031100000221000002110D4
:101A2C0000001210000011100010024000000140D4
:101A3C0000080140000C014000100140000401406E
:101A4C0080B485B000AF78600B467B807B689A6869
:101A5C007B881340002B02D00123FB7301E0002391
:101A6C00FB73FB7B18461437BD4680BC704780B4B3
:101A7C0083B000AF78600B467B8013467B707B781D
:101A8C00002B03D07A887B681A6103E07B881A04E8
:101A9C007B681A6100BF0C37BD4680BC704780B4B0
:101AAC0085B000AF78600B467B807B68DB68FB60A1
:101ABC007A88FB6813401A04FB68D9437B880B4077
:101ACC001A437B681A6100BF1437BD4680BC70474F
:101ADC0080B586B000AF78607B68002B01D1012304
:101AEC006CE27B681B6803F00103002B00F087801D
:101AFC00924B5B6803F00C03042B0CD08F4B5B6890
:101B0C0003F00C03082B12D18C4B5B6803F480336D
:101B1C00B3F5803F0BD1894B1B6803F40033002BCA
:101B2C006CD07B685B68002B68D1012346E27B6834
:101B3C005B68B3F5803F06D1804B1B687F4A43F44A
:101B4C00803313602EE07B685B68002B0CD17B4BE1
:101B5C001B687A4A23F480331360784B1B68774AEE
:101B6C0023F4802313601DE07B685B68B3F5A02F22
:101B7C000CD1724B1B68714A43F4802313606F4B7A
:101B8C001B686E4A43F4803313600BE06B4B1B688D
:101B9C006A4A23F480331360684B1B68674A23F44A
:101BAC00802313607B685B68002B13D0FFF7B6FCB7
:101BBC00386108E0FFF7B2FC02463B69D31A642B8C
:101BCC0001D90323FAE15D4B1B6803F40033002BAE
:101BDC00F0D014E0FFF7A2FC386108E0FFF79EFCA0
:101BEC0002463B69D31A642B01D90323E6E1534B1C
:101BFC001B6803F40033002BF0D100E000BF7B68BE
:101C0C001B6803F00203002B63D04C4B5B6803F0A2
:101C1C000C03002B0BD0494B5B6803F00C03082B17
:101C2C001CD1464B5B6803F48033002B16D1434B1D
:101C3C001B6803F00203002B05D07B681B69012B8A
:101C4C0001D00123BAE13D4B1B6823F0F8027B68FD
:101C5C005B69DB00394913430B603AE07B681B6915
:101C6C00002B20D0364B01221A60FFF757FC38614D
:101C7C0008E0FFF753FC02463B69D31A022B01D94B
:101C8C0003239BE12D4B1B6803F00203002BF0D0C8
:101C9C002A4B1B6823F0F8027B685B69DB00274941
:101CAC0013430B6015E0264B00221A60FFF736FC3D
:101CBC00386108E0FFF732FC02463B69D31A022B6D
:101CCC0001D903237AE11D4B1B6803F00203002B9F
:101CDC00F0D17B681B6803F00803002B3AD07B68BB
:101CEC009B69002B19D0174B01221A60FFF716FCC9
:101CFC00386108E0FFF712FC02463B69D31A022B4D
:101D0C0001D903235AE10D4B5B6A03F00203002B4C
:101D1C00F0D0012000F09AFA1CE00A4B00221A6065
:101D2C00FFF7FCFB38610FE0FFF7F8FB02463B695D
:101D3C00D31A022B08D9032340E100BF0010024044
:101D4C0000004242800442429E4B5B6A03F0020355
:101D5C00002BE9D17B681B6803F00403002B00F017
:101D6C00A6800023FB75974BDB6903F08053002B97
:101D7C000DD1944BDB69934A43F08053D361914B63
:101D8C00DB6903F08053BB60BB680123FB758E4B92
:101D9C001B6803F48073002B18D18B4B1B688A4A89
:101DAC0043F480731360FFF7B9FB386108E0FFF769
:101DBC00B5FB02463B69D31A642B01D90323FDE022
:101DCC00814B1B6803F48073002BF0D07B68DB68BD
:101DDC00012B06D17B4B1B6A7A4A43F00103136239
:101DEC002DE07B68DB68002B0CD1764B1B6A754AA7
:101DFC0023F001031362734B1B6A724A23F0040332
:101E0C0013621CE07B68DB68052B0CD16D4B1B6AE5
:101E1C006C4A43F0040313626A4B1B6A694A43F031
:101E2C00010313620BE0674B1B6A664A23F0010344
:101E3C001362644B1B6A634A23F0040313627B68CE
:101E4C00DB68002B15D0FFF769FB38610AE0FFF760
:101E5C0065FB02463B69D31A41F28832934201D9A1
:101E6C000323ABE0574B1B6A03F00203002BEED0AD
:101E7C0014E0FFF753FB38610AE0FFF74FFB024613
:101E8C003B69D31A41F28832934201D9032395E07E
:101E9C004C4B1B6A03F00203002BEED1FB7D012B94
:101EAC0005D1484BDB69474A23F08053D3617B68EB
:101EBC00DB69002B00F08180424B5B6803F00C0364
:101ECC00082B61D07B68DB69022B46D13F4B00228B
:101EDC001A60FFF723FB386108E0FFF71FFB02468F
:101EEC003B69D31A022B01D9032367E0354B1B68DE
:101EFC0003F00073002BF0D17B681B6AB3F5803FB5
:101F0C0008D1304B5B6823F400327B689B682D4909
:101F1C0013434B602B4B5B6823F474127B68196A78
:101F2C007B685B6A0B43274913434B60274B0122A9
:101F3C001A60FFF7F3FA386108E0FFF7EFFA024690
:101F4C003B69D31A022B01D9032337E01D4B1B68C5
:101F5C0003F00073002BF0D02FE01C4B00221A6012
:101F6C00FFF7DCFA386108E0FFF7D8FA02463B6964
:101F7C00D31A022B01D9032320E0124B1B6803F068
:101F8C000073002BF0D118E07B68DB69012B01D1C9
:101F9C00012313E00B4B5B68FB60FB6803F480329E
:101FAC007B681B6A9A4206D1FB6803F470127B684B
:101FBC005B6A9A4201D0012300E0002318461837CF
:101FCC00BD4680BD001002400070004060004242DF
:101FDC0080B584B000AF786039607B68002B01D18C
:101FEC000123D0E06A4B1B6803F007033A689A425E
:101FFC0010D9674B1B6823F0070265493B681343F4
:10200C000B60634B1B6803F007033A689A4201D0DC
:10201C000123B8E07B681B6803F00203002B20D07F
:10202C007B681B6803F00403002B05D0594B5B68DD
:10203C00584A43F4E06353607B681B6803F0080361
:10204C00002B05D0534B5B68524A43F460535360EA
:10205C00504B5B6823F0F0027B689B684D4913433F
:10206C004B607B681B6803F00103002B40D07B683E
:10207C005B68012B07D1474B1B6803F40033002B23
:10208C0015D101237FE07B685B68022B07D1414BA4
:10209C001B6803F00073002B09D1012373E03D4B47
:1020AC001B6803F00203002B01D101236BE0394BB9
:1020BC005B6823F003027B685B68364913434B6013
:1020CC00FFF72CFAF8600AE0FFF728FA0246FB68E3
:1020DC00D31A41F28832934201D9032353E02D4B9A
:1020EC005B6803F00C027B685B689B009A42EBD147
:1020FC00274B1B6803F007033A689A4210D2244B13
:10210C001B6823F0070222493B6813430B60204BEA
:10211C001B6803F007033A689A4201D0012332E0AE
:10212C007B681B6803F00403002B08D0194B5B6819
:10213C0023F4E0627B68DB68164913434B607B68D1
:10214C001B6803F00803002B09D0124B5B6823F4C7
:10215C0060527B681B69DB000E4913434B6000F037
:10216C0021F802460B4B5B681B0903F00F030A496D
:10217C00CB5C22FA03F3094A1360094B1B6818461F
:10218C00FFF78AF9002318461037BD4680BD00BF03
:10219C000020024000100240BC2A0008440000202D
:1021AC004C00002080B487B000AF0023FB600023FC
:1021BC00BB6000237B6100237B6000233B611E4BD3
:1021CC005B68FB60FB6803F00C03042B02D0082B4C
:1021DC0003D027E0194B3B6127E0FB689B0C03F015
:1021EC000F03174AD35C7B60FB6803F48033002B2E
:1021FC0010D0114B5B685B0C03F00103114AD35CEC
:10220C00BB607B680D4A02FB03F2BB68B2FBF3F3C5
:10221C007B6104E07B680C4A02FB03F37B617B6906
:10222C003B6102E0054B3B6100BF3B6918461C3724
:10223C00BD4680BC704700BF0010024000127A00FF
:10224C00CC2A0008DC2A000800093D0080B485B0C7
:10225C0000AF78600A4B1B680A4AA2FB03235B0A97
:10226C007A6802FB03F3FB6000BFFB685A1EFA603E
:10227C00002BF9D100BF00BF1437BD4680BC70479E
:10228C0044000020D34D621080B582B000AF78605E
:10229C007B68002B01D1012341E07B6893F83D3032
:1022AC00DBB2002B06D17B68002283F83C207868D7
:1022BC00FFF714F87B68022283F83D207B681A68CC
:1022CC007B6804331946104600F056FA7B680122ED
:1022DC0083F846207B68012283F83E207B6801222C
:1022EC0083F83F207B68012283F840207B68012221
:1022FC0083F841207B68012283F842207B6801220D
:10230C0083F843207B68012283F844207B680122F8
:10231C0083F845207B68012283F83D200023184672
:10232C000837BD4680BD000080B485B000AF786032
:10233C007B6893F83D30DBB2012B01D0012335E0F3
:10234C007B68022283F83D207B681B68DA687B6817
:10235C001B6842F00102DA607B681B68164A9342E4
:10236C0009D07B681B68B3F1804F04D07B681B6875
:10237C00124A934211D17B681B689B6803F00703D8
:10238C00FB60FB68062B10D07B681B681A687B68A7
:10239C001B6842F001021A6007E07B681B681A6830
:1023AC007B681B6842F001021A6000231846143740
:1023BC00BD4680BC704700BF002C014000040040AB
:1023CC0080B584B000AF78607B681B68DB68FB600D
:1023DC007B681B681B69BB60BB6803F00203002BA6
:1023EC0020D0FB6803F00203002B1BD07B681B681A
:1023FC006FF002021A617B6801221A777B681B68F6
:10240C009B6903F00303002B03D0786800F098F964
:10241C0005E0786800F08BF9786800F09AF97B6831
:10242C0000221A77BB6803F00403002B20D0FB6852
:10243C0003F00403002B1BD07B681B686FF00402B5
:10244C001A617B6802221A777B681B689B6903F40C
:10245C004073002B03D0786800F072F905E07868BF
:10246C0000F065F9786800F074F97B6800221A773F
:10247C00BB6803F00803002B20D0FB6803F00803B3
:10248C00002B1BD07B681B686FF008021A617B68FD
:10249C0004221A777B681B68DB6903F00303002BAB
:1024AC0003D0786800F04CF905E0786800F03FF94B
:1024BC00786800F04EF97B6800221A77BB6803F04D
:1024CC001003002B20D0FB6803F01003002B1BD053
:1024DC007B681B686FF010021A617B6808221A7700
:1024EC007B681B68DB6903F44073002B03D07868AE
:1024FC0000F026F905E0786800F019F9786800F02A
:10250C0028F97B6800221A77BB6803F00103002BC3
:10251C000CD0FB6803F00103002B07D07B681B6811
:10252C006FF001021A617868FEF78AFEBB6803F04F
:10253C008003002B0CD0FB6803F08003002B07D02A
:10254C007B681B686FF080021A61786800F06FFA84
:10255C00BB6803F04003002B0CD0FB6803F0400376
:10256C00002B07D07B681B686FF040021A617868FB
:10257C0000F0F8F8BB6803F02003002B0CD0FB68CC
:10258C0003F02003002B07D07B681B686FF0200240
:10259C001A61786800F042FA00BF1037BD4680BD62
:1025AC0080B584B000AF786039600023FB737B6822
:1025BC0093F83C30012B01D10223B4E07B6801225B
:1025CC0083F83C207B68022283F83D207B681B68E3
:1025DC009B68BB60BB6823F07703BB60BB6823F4CC
:1025EC007F43BB607B681B68BA689A603B681B685A
:1025FC00B3F5005F3ED0B3F5005F00F28780B3F512
:10260C00805F00F08680B3F5805F7FD8702B1AD086
:10261C00702B7BD8602B50D0602B77D8502B3CD0B4
:10262C00502B73D8402B58D0402B6FD8302B64D004
:10263C00302B6BD8202B60D0202B67D8002B5CD094
:10264C00102B5AD062E07B6818683B6899683B682D
:10265C005A683B68DB6800F06AF97B681B689B680A
:10266C00BB60BB6843F07703BB607B681B68BA68D0
:10267C009A604FE07B6818683B6899683B685A68B9
:10268C003B68DB6800F053F97B681B689A687B68D1
:10269C001B6842F480429A603CE07B6818683B6897
:1026AC0059683B68DB681A4600F0CAF87B681B68FF
:1026BC005021184600F021F92CE07B6818683B6823
:1026CC0059683B68DB681A4600F0E8F87B681B68C1
:1026DC006021184600F011F91CE07B6818683B6813
:1026EC0059683B68DB681A4600F0AAF87B681B68DF
:1026FC004021184600F001F90CE07B681A683B6831
:10270C001B681946104600F0F8F803E00123FB7330
:10271C0000E000BF7B68012283F83D207B6800222B
:10272C0083F83C20FB7B18461037BD4680BD80B437
:10273C0083B000AF786000BF0C37BD4680BC7047DB
:10274C0080B483B000AF786000BF0C37BD4680BC4E
:10275C00704780B483B000AF786000BF0C37BD46C3
:10276C0080BC704780B483B000AF786000BF0C377A
:10277C00BD4680BC7047000080B485B000AF786067
:10278C0039607B681B68FB607B682B4A934207D0DF
:10279C007B68B3F1804F03D07B68284A934208D101
:1027AC00FB6823F07003FB603B685B68FA681343BB
:1027BC00FB607B68204A934207D07B68B3F1804F63
:1027CC0003D07B681D4A934208D1FB6823F4407305
:1027DC00FB603B68DB68FA681343FB60FB6823F023
:1027EC0080023B685B691343FB607B68FA681A6084
:1027FC003B689A687B68DA623B681A687B689A6205
:10280C007B680D4A934203D13B681A697B681A6353
:10281C007B6801225A617B681B6903F00103002B62
:10282C0005D07B681B6923F001027B681A6100BF2D
:10283C001437BD4680BC7047002C0140000400409A
:10284C0080B487B000AFF860B9607A60FB681B6A2F
:10285C007B61FB681B6A23F00102FB681A62FB6850
:10286C009B693B613B6923F0F0033B617B681B0177
:10287C003A6913433B617B6923F00A037B617A69F4
:10288C00BB6813437B61FB683A699A61FB687A69A0
:10289C001A6200BF1C37BD4680BC704780B487B03D
:1028AC0000AFF860B9607A60FB681B6A7B61FB68FB
:1028BC001B6A23F01002FB681A62FB689B693B6180
:1028CC003B6923F470433B617B681B033A691343F8
:1028DC003B617B6923F0A0037B61BB681B017A69B8
:1028EC0013437B61FB683A699A61FB687A691A62E7
:1028FC0000BF1C37BD4680BC704780B485B000AFAC
:10290C00786039607B689B68FB60FB6823F0700320
:10291C00FB603A68FB68134343F00703FB607B687A
:10292C00FA689A6000BF1437BD4680BC704780B40B
:10293C0087B000AFF860B9607A603B60FB689B6859
:10294C007B617B6923F47F437B613B681A027B6864
:10295C001A43BB6813437A6913437B61FB687A693A
:10296C009A6000BF1C37BD4680BC704780B485B0F0
:10297C0000AF786039607B6893F83C30012B01D153
:10298C00022341E07B68012283F83C207B68022211
:10299C0083F83D207B681B685B68FB607B681B6869
:1029AC009B68BB60FB6823F07003FB603B681B6893
:1029BC00FA681343FB607B681B68FA685A607B6893
:1029CC001B68144A934209D07B681B68B3F1804F93
:1029DC0004D07B681B68104A93420CD1BB6823F06F
:1029EC008003BB603B685B68BA681343BB607B6861
:1029FC001B68BA689A607B68012283F83D207B686B
:102A0C00002283F83C20002318461437BD4680BCB6
:102A1C00704700BF002C01400004004080B483B01C
:102A2C0000AF786000BF0C37BD4680BC704780B4E7
:102A3C0083B000AF786000BF0C37BD4680BC7047D8
:102A4C0070B500260C4D0D4C641BA410A64209D188
:102A5C0000F022F800260A4D0A4C641BA410A64272
:102A6C0005D170BD55F8043B98470136EEE755F893
:102A7C00043B98470136F2E7E02A0008E02A0008F8
:102A8C00E02A0008E42A000803460244934200D1DD
:102A9C00704703F8011BF9E7F8B500BFF8BC08BC98
:102AAC009E467047F8B500BFF8BC08BC9E46704700
:102ABC0000000000000000000102030406070809E2
:102ACC0002030405060708090A0B0C0D0E0F101063
:042ADC0001020000F3
:042AE00031010008B8
:042AE4000D010008D8
:102AE80001000000010000000100000001000000DA
:102AF80001000000010000000100000001000000CA
:102B080001000000010000000100000001000000B9
:102B1800FFFFFFFFFFFFFFFF10270000B80B0000BB
:102B2800581B000000127A000A0000001000000084
:042B38000100000098
:040000050800142DAE
:00000001FF
